


ARM Macro Assembler    Page 1 


    1 00000000         
    2 00000000                 AREA             |.text|, CODE, READONLY
    3 00000000         
    4 00000000         PendSV_Handler
                               PROC
    5 00000000                 EXPORT           PendSV_Handler
    6 00000000                 IMPORT           Kernel_isSwitching
    7 00000000                 IMPORT           Kernel_Active
    8 00000000 B501            PUSH             {R0,LR}
    9 00000002         
   10 00000002         ;判断是否需要切换上下文
   11 00000002 4A0E            LDR              R2, = Kernel_isSwitching
   12 00000004 4790            BLX              R2
   13 00000006 F110 0F00       CMN              R0,#0
   14 0000000A D40D            BMI              endpend
   15 0000000C         
   16 0000000C         ;从此处开始，需要保存上下文 
   17 0000000C F3EF 8109       MRS              R1,PSP
   18 00000010         ;浮点上下文 
   19 00000010 ED21 8A10       VSTMDB           R1!,{S16-S31}
   20 00000014         ;通用上下文
   21 00000014 E921 0FF0       STMDB            R1!,{R4-R11}
   22 00000018         ;切换任务栈
   23 00000018 4A09            LDR              R2,=Kernel_Active
   24 0000001A 4790            BLX              R2
   25 0000001C         
   26 0000001C         ;从此以下，恢复新任务的栈空间
   27 0000001C         ;恢复通用上下文 
   28 0000001C E8B0 0FF0       LDMIA            R0!,{R4-R11}
   29 00000020         ;恢复浮点上下文
   30 00000020 ECB0 8A10       VLDMIA           R0!,{S16-S31}
   31 00000024         ;恢复PSP栈
   32 00000024 F380 8809       MSR              PSP,R0
   33 00000028         ;返回任务执行
   34 00000028         endpend
   35 00000028 BD01            POP              {R0,PC}
   36 0000002A                 ENDP
   37 0000002A         
   38 0000002A         SVC_Handler
                               PROC
   39 0000002A                 EXPORT           SVC_Handler
   40 0000002A                 IMPORT           SVC_Server
   41 0000002A F01E 0F04       TST              LR, #4      ;TEST BIT 2 OF EXC_
                                                            RETURN
   42 0000002E BF0C            ITE              EQ
   43 00000030 F3EF 8008       MRSEQ            R0,MSP
   44 00000034 F3EF 8009       MRSNE            R0,PSP
   45 00000038 F7FF BFFE       B                SVC_Server
   46 0000003C                 ENDP
   47 0000003C                 END
              00000000 
              00000000 
Command Line: --debug --xref --diag_suppress=9931 --cpu=Cortex-M4.fp --apcs=int
erwork --depend=.\objects\asmgroup.d -o.\objects\asmgroup.o -IC:\Users\Administ
rator\Desktop\3\anOs\RTE -Id:\Keil_v5\ARM\PACK\Keil\STM32F4xx_DFP\2.5.0\Drivers
\CMSIS\Device\ST\STM32F4xx\Include -Id:\Keil_v5\ARM\CMSIS\Include --predefine="
__UVISION_VERSION SETA 515" --predefine="STM32F427xx SETA 1" --list=.\listings\
asmgroup.lst Src\asmGroup.s



ARM Macro Assembler    Page 1 Alphabetic symbol ordering
Relocatable symbols

.text 00000000

Symbol: .text
   Definitions
      At line 2 in file Src\asmGroup.s
   Uses
      None
Comment: .text unused
PendSV_Handler 00000000

Symbol: PendSV_Handler
   Definitions
      At line 4 in file Src\asmGroup.s
   Uses
      At line 5 in file Src\asmGroup.s
Comment: PendSV_Handler used once
SVC_Handler 0000002A

Symbol: SVC_Handler
   Definitions
      At line 38 in file Src\asmGroup.s
   Uses
      At line 39 in file Src\asmGroup.s
Comment: SVC_Handler used once
endpend 00000028

Symbol: endpend
   Definitions
      At line 34 in file Src\asmGroup.s
   Uses
      At line 14 in file Src\asmGroup.s
Comment: endpend used once
4 symbols



ARM Macro Assembler    Page 1 Alphabetic symbol ordering
External symbols

Kernel_Active 00000000

Symbol: Kernel_Active
   Definitions
      At line 7 in file Src\asmGroup.s
   Uses
      At line 23 in file Src\asmGroup.s
Comment: Kernel_Active used once
Kernel_isSwitching 00000000

Symbol: Kernel_isSwitching
   Definitions
      At line 6 in file Src\asmGroup.s
   Uses
      At line 11 in file Src\asmGroup.s
Comment: Kernel_isSwitching used once
SVC_Server 00000000

Symbol: SVC_Server
   Definitions
      At line 40 in file Src\asmGroup.s
   Uses
      At line 45 in file Src\asmGroup.s
Comment: SVC_Server used once
3 symbols
342 symbols in table
